{
  "contractName": "WordCup",
  "abi": [
    {
      "constant": true,
      "inputs": [],
      "name": "ceoAddress",
      "outputs": [
        {
          "name": "",
          "type": "address"
        }
      ],
      "payable": false,
      "stateMutability": "view",
      "type": "function"
    },
    {
      "inputs": [],
      "payable": false,
      "stateMutability": "nonpayable",
      "type": "constructor"
    },
    {
      "payable": true,
      "stateMutability": "payable",
      "type": "fallback"
    },
    {
      "constant": false,
      "inputs": [
        {
          "name": "_red",
          "type": "bytes32"
        },
        {
          "name": "_blue",
          "type": "bytes32"
        }
      ],
      "name": "createGame",
      "outputs": [
        {
          "name": "",
          "type": "uint256"
        }
      ],
      "payable": false,
      "stateMutability": "nonpayable",
      "type": "function"
    },
    {
      "constant": false,
      "inputs": [],
      "name": "getAddressBalance",
      "outputs": [],
      "payable": false,
      "stateMutability": "nonpayable",
      "type": "function"
    },
    {
      "constant": true,
      "inputs": [],
      "name": "getContractAddress",
      "outputs": [
        {
          "name": "",
          "type": "address"
        }
      ],
      "payable": false,
      "stateMutability": "view",
      "type": "function"
    },
    {
      "constant": true,
      "inputs": [],
      "name": "getContractBalance",
      "outputs": [
        {
          "name": "",
          "type": "uint256"
        }
      ],
      "payable": false,
      "stateMutability": "view",
      "type": "function"
    }
  ],
  "bytecode": "0x608060405234801561001057600080fd5b50336000806101000a81548173ffffffffffffffffffffffffffffffffffffffff021916908373ffffffffffffffffffffffffffffffffffffffff16021790555061056e806100606000396000f30060806040526004361061006d576000357c0100000000000000000000000000000000000000000000000000000000900463ffffffff1680630a0f81681461006f57806332a2c5d0146100c65780636946bb5d1461011d5780636f9fb98a1461017057806375eb2ad11461019b575b005b34801561007b57600080fd5b506100846101b2565b604051808273ffffffffffffffffffffffffffffffffffffffff1673ffffffffffffffffffffffffffffffffffffffff16815260200191505060405180910390f35b3480156100d257600080fd5b506100db6101d7565b604051808273ffffffffffffffffffffffffffffffffffffffff1673ffffffffffffffffffffffffffffffffffffffff16815260200191505060405180910390f35b34801561012957600080fd5b5061015a600480360381019080803560001916906020019092919080356000191690602001909291905050506101df565b6040518082815260200191505060405180910390f35b34801561017c57600080fd5b506101856101f4565b6040518082815260200191505060405180910390f35b3480156101a757600080fd5b506101b0610213565b005b6000809054906101000a900473ffffffffffffffffffffffffffffffffffffffff1681565b600030905090565b60006101ec33848461025e565b905092915050565b60003073ffffffffffffffffffffffffffffffffffffffff1631905090565b3373ffffffffffffffffffffffffffffffffffffffff166108fc6103e89081150290604051600060405180830381858888f1935050505015801561025b573d6000803e3d6000fd5b50565b6000610268610418565b60e0604051908101604052808673ffffffffffffffffffffffffffffffffffffffff16815260200160006040519080825280602002602001820160405280156102c05781602001602082028038833980820191505090505b50815260200160006040519080825280602002602001820160405280156102f65781602001602082028038833980820191505090505b50815260200185600019168152602001846000191681526020016000801916815260200160008152509050600180829080600181540180825580915050906001820390600052602060002090600702016000909192909190915060008201518160000160006101000a81548173ffffffffffffffffffffffffffffffffffffffff021916908373ffffffffffffffffffffffffffffffffffffffff16021790555060208201518160010190805190602001906103b3929190610475565b5060408201518160020190805190602001906103d0929190610475565b50606082015181600301906000191690556080820151816004019060001916905560a0820151816005019060001916905560c082015181600601555050039150509392505050565b60e060405190810160405280600073ffffffffffffffffffffffffffffffffffffffff1681526020016060815260200160608152602001600080191681526020016000801916815260200160008019168152602001600081525090565b8280548282559060005260206000209081019282156104ee579160200282015b828111156104ed5782518260006101000a81548173ffffffffffffffffffffffffffffffffffffffff021916908373ffffffffffffffffffffffffffffffffffffffff16021790555091602001919060010190610495565b5b5090506104fb91906104ff565b5090565b61053f91905b8082111561053b57600081816101000a81549073ffffffffffffffffffffffffffffffffffffffff021916905550600101610505565b5090565b905600a165627a7a72305820b41d63ccb7ec30c81c71aaf15f7fe5143f9fd4c254a12da312e3f272796ab84a0029",
  "source": "pragma solidity ^0.4.18;\n\n//import \"./ERC721.sol\";\n\n/**\n * The WordCup contract does this and that...\n */\ncontract WordCup {\n//    string public constant name = \"ZeroToken\";\n//    string public constant symbol = \"ZERO\";\n    address public ceoAddress;\n\n//    bytes4 constant InterfaceID_ERC165 =\n//        bytes4(keccak256('supportsInterface(bytes4)'));\n//\n//    bytes4 constant InterfaceID_ERC721 =\n//        bytes4(keccak256('name()')) ^\n//        bytes4(keccak256('symbol()')) ^\n//        bytes4(keccak256('totalSupply()')) ^\n//        bytes4(keccak256('balanceOf(address)')) ^\n//        bytes4(keccak256('ownerOf(uint256)')) ^\n//        bytes4(keccak256('approve(address,uint256)')) ^\n//        bytes4(keccak256('transfer(address,uint256)')) ^\n//        bytes4(keccak256('transferFrom(address,address,uint256)')) ^\n//        bytes4(keccak256('tokensOfOwner(address)'));\n\n    struct Token {\n        address seller;\n        address[] redParticipant;\n        address[] blueParticipant;\n        bytes32 red;\n        bytes32 blue;\n        bytes32  winner;\n        uint256 prizePool;\n    }\n\n    Token[] tokens;\n\n    mapping(address => mapping(uint256 => uint256)) partTokenAccount;\n\n    function _create(address _seller, bytes32 _red, bytes32 _blue) internal returns (uint256 tokenId){\n        Token memory token = Token({\n            seller: _seller,\n            red: _red,\n            blue: _blue,\n            redParticipant: new address[](0),\n            blueParticipant: new address[](0),\n            winner: '',\n            prizePool: 0\n        });\n\n        tokenId = tokens.push(token) - 1;\n    }\n\n    constructor() public {\n        ceoAddress = msg.sender;\n    }\n\n    function createGame(bytes32 _red, bytes32 _blue) external returns(uint256){\n        return _create(msg.sender, _red, _blue);\n    }\n\n//    function add_parter(address _parter, uint256 _tokenId, uint256 _price, bytes32 _side) internal {\n//\n//    }\n\n//    function partIn(uint256 _tokenId, uint256 _price, bytes32 _side) external {\n//        address _address = msg.sender;\n//        _address.balance;\n//    }\n\n    function getAddressBalance() external {\n        msg.sender.transfer(1000);\n    }\n\n    function getContractAddress() external view returns (address) {\n        return address(this);\n    }\n\n    function getContractBalance() external view returns (uint256) {\n        return address(this).balance;\n    }\n\n    function () external payable {}\n}\n",
  "sourcePath": "/Users/zhangyeshuo/Projects/test/zero/contracts/WordCup.sol",
  "compiler": {
    "name": "solc",
    "version": "0.4.23+commit.124ca40d.Emscripten.clang"
  },
  "schemaVersion": "2.0.0",
  "updatedAt": "2018-06-12T15:43:47.964Z"
}