{
  "contractName": "ZeroToken",
  "abi": [
    {
      "constant": true,
      "inputs": [],
      "name": "name",
      "outputs": [
        {
          "name": "",
          "type": "string"
        }
      ],
      "payable": false,
      "stateMutability": "view",
      "type": "function"
    },
    {
      "constant": true,
      "inputs": [
        {
          "name": "",
          "type": "uint256"
        }
      ],
      "name": "tokenIndexToOwner",
      "outputs": [
        {
          "name": "",
          "type": "address"
        }
      ],
      "payable": false,
      "stateMutability": "view",
      "type": "function"
    },
    {
      "constant": true,
      "inputs": [],
      "name": "symbol",
      "outputs": [
        {
          "name": "",
          "type": "string"
        }
      ],
      "payable": false,
      "stateMutability": "view",
      "type": "function"
    },
    {
      "constant": true,
      "inputs": [
        {
          "name": "",
          "type": "uint256"
        }
      ],
      "name": "tokenIndexToApproved",
      "outputs": [
        {
          "name": "",
          "type": "address"
        }
      ],
      "payable": false,
      "stateMutability": "view",
      "type": "function"
    },
    {
      "anonymous": false,
      "inputs": [
        {
          "indexed": false,
          "name": "from",
          "type": "address"
        },
        {
          "indexed": false,
          "name": "to",
          "type": "address"
        },
        {
          "indexed": false,
          "name": "tokenId",
          "type": "uint256"
        }
      ],
      "name": "Transfer",
      "type": "event"
    },
    {
      "anonymous": false,
      "inputs": [
        {
          "indexed": false,
          "name": "owner",
          "type": "address"
        },
        {
          "indexed": false,
          "name": "approved",
          "type": "address"
        },
        {
          "indexed": false,
          "name": "tokenId",
          "type": "uint256"
        }
      ],
      "name": "Approval",
      "type": "event"
    },
    {
      "constant": true,
      "inputs": [
        {
          "name": "_interfaceID",
          "type": "bytes4"
        }
      ],
      "name": "supportsInterface",
      "outputs": [
        {
          "name": "",
          "type": "bool"
        }
      ],
      "payable": false,
      "stateMutability": "view",
      "type": "function"
    },
    {
      "constant": true,
      "inputs": [],
      "name": "totalSupply",
      "outputs": [
        {
          "name": "",
          "type": "uint256"
        }
      ],
      "payable": false,
      "stateMutability": "view",
      "type": "function"
    },
    {
      "constant": true,
      "inputs": [
        {
          "name": "_owner",
          "type": "address"
        }
      ],
      "name": "balanceOf",
      "outputs": [
        {
          "name": "",
          "type": "uint256"
        }
      ],
      "payable": false,
      "stateMutability": "view",
      "type": "function"
    },
    {
      "constant": true,
      "inputs": [
        {
          "name": "_tokenId",
          "type": "uint256"
        }
      ],
      "name": "ownerOf",
      "outputs": [
        {
          "name": "owner",
          "type": "address"
        }
      ],
      "payable": false,
      "stateMutability": "view",
      "type": "function"
    },
    {
      "constant": false,
      "inputs": [
        {
          "name": "_to",
          "type": "address"
        },
        {
          "name": "_tokenId",
          "type": "uint256"
        }
      ],
      "name": "approve",
      "outputs": [],
      "payable": false,
      "stateMutability": "nonpayable",
      "type": "function"
    },
    {
      "constant": false,
      "inputs": [
        {
          "name": "_to",
          "type": "address"
        },
        {
          "name": "_tokenId",
          "type": "uint256"
        }
      ],
      "name": "transfer",
      "outputs": [],
      "payable": false,
      "stateMutability": "nonpayable",
      "type": "function"
    },
    {
      "constant": false,
      "inputs": [
        {
          "name": "_from",
          "type": "address"
        },
        {
          "name": "_to",
          "type": "address"
        },
        {
          "name": "_tokenId",
          "type": "uint256"
        }
      ],
      "name": "transferFrom",
      "outputs": [],
      "payable": false,
      "stateMutability": "nonpayable",
      "type": "function"
    },
    {
      "constant": true,
      "inputs": [
        {
          "name": "_owner",
          "type": "address"
        }
      ],
      "name": "tokensOfOwner",
      "outputs": [
        {
          "name": "",
          "type": "uint256[]"
        }
      ],
      "payable": false,
      "stateMutability": "view",
      "type": "function"
    },
    {
      "constant": false,
      "inputs": [
        {
          "name": "open_time",
          "type": "uint64"
        },
        {
          "name": "_limit",
          "type": "uint32"
        }
      ],
      "name": "createZero",
      "outputs": [
        {
          "name": "",
          "type": "uint256"
        }
      ],
      "payable": false,
      "stateMutability": "nonpayable",
      "type": "function"
    },
    {
      "constant": true,
      "inputs": [],
      "name": "len",
      "outputs": [
        {
          "name": "",
          "type": "uint256"
        }
      ],
      "payable": false,
      "stateMutability": "view",
      "type": "function"
    },
    {
      "constant": true,
      "inputs": [
        {
          "name": "_tokenId",
          "type": "uint256"
        }
      ],
      "name": "getToken",
      "outputs": [
        {
          "name": "mintedBy",
          "type": "address"
        },
        {
          "name": "limit",
          "type": "uint32"
        },
        {
          "name": "participant",
          "type": "address[]"
        },
        {
          "name": "le",
          "type": "uint256"
        },
        {
          "name": "openTime",
          "type": "uint64"
        },
        {
          "name": "status",
          "type": "uint8"
        },
        {
          "name": "winner",
          "type": "address"
        }
      ],
      "payable": false,
      "stateMutability": "view",
      "type": "function"
    },
    {
      "constant": true,
      "inputs": [],
      "name": "balanceOfToken",
      "outputs": [
        {
          "name": "",
          "type": "uint256[]"
        }
      ],
      "payable": false,
      "stateMutability": "view",
      "type": "function"
    },
    {
      "constant": false,
      "inputs": [
        {
          "name": "_tokenId",
          "type": "uint256"
        }
      ],
      "name": "openPrice",
      "outputs": [],
      "payable": false,
      "stateMutability": "nonpayable",
      "type": "function"
    },
    {
      "constant": false,
      "inputs": [
        {
          "name": "_tokenId",
          "type": "uint256"
        },
        {
          "name": "_value",
          "type": "bytes32"
        }
      ],
      "name": "partIn",
      "outputs": [],
      "payable": false,
      "stateMutability": "nonpayable",
      "type": "function"
    }
  ],
  "bytecode": "0x608060405234801561001057600080fd5b50611fed806100206000396000f3006080604052600436106100fc576000357c0100000000000000000000000000000000000000000000000000000000900463ffffffff16806301ffc9a71461010157806306fdde0314610165578063095ea7b3146101f5578063175b9dd21461024257806318160ddd1461029d5780631d36e06c146102c857806323b872dd1461033557806356d88e27146103a25780636352211e146103cd5780636b0f1c811461043a57806370a08231146104a65780637d45f95f146104fd5780638462151c1461052a57806387169f07146105c257806395d89b41146105fd578063a8bd9c321461068d578063a9059cbb146106fa578063e4b50cb814610747575b600080fd5b34801561010d57600080fd5b5061014b60048036038101908080357bffffffffffffffffffffffffffffffffffffffffffffffffffffffff19169060200190929190505050610871565b604051808215151515815260200191505060405180910390f35b34801561017157600080fd5b5061017a610b4b565b6040518080602001828103825283818151815260200191508051906020019080838360005b838110156101ba57808201518184015260208101905061019f565b50505050905090810190601f1680156101e75780820380516001836020036101000a031916815260200191505b509250505060405180910390f35b34801561020157600080fd5b50610240600480360381019080803573ffffffffffffffffffffffffffffffffffffffff16906020019092919080359060200190929190505050610b84565b005b34801561024e57600080fd5b50610287600480360381019080803567ffffffffffffffff169060200190929190803563ffffffff169060200190929190505050610ba7565b6040518082815260200191505060405180910390f35b3480156102a957600080fd5b506102b2610bbc565b6040518082815260200191505060405180910390f35b3480156102d457600080fd5b506102f360048036038101908080359060200190929190505050610bc8565b604051808273ffffffffffffffffffffffffffffffffffffffff1673ffffffffffffffffffffffffffffffffffffffff16815260200191505060405180910390f35b34801561034157600080fd5b506103a0600480360381019080803573ffffffffffffffffffffffffffffffffffffffff169060200190929190803573ffffffffffffffffffffffffffffffffffffffff16906020019092919080359060200190929190505050610bfb565b005b3480156103ae57600080fd5b506103b7610cac565b6040518082815260200191505060405180910390f35b3480156103d957600080fd5b506103f860048036038101908080359060200190929190505050610cb8565b604051808273ffffffffffffffffffffffffffffffffffffffff1673ffffffffffffffffffffffffffffffffffffffff16815260200191505060405180910390f35b34801561044657600080fd5b5061044f610d31565b6040518080602001828103825283818151815260200191508051906020019060200280838360005b83811015610492578082015181840152602081019050610477565b505050509050019250505060405180910390f35b3480156104b257600080fd5b506104e7600480360381019080803573ffffffffffffffffffffffffffffffffffffffff169060200190929190505050610e2c565b6040518082815260200191505060405180910390f35b34801561050957600080fd5b5061052860048036038101908080359060200190929190505050610e75565b005b34801561053657600080fd5b5061056b600480360381019080803573ffffffffffffffffffffffffffffffffffffffff169060200190929190505050611087565b6040518080602001828103825283818151815260200191508051906020019060200280838360005b838110156105ae578082015181840152602081019050610593565b505050509050019250505060405180910390f35b3480156105ce57600080fd5b506105fb6004803603810190808035906020019092919080356000191690602001909291905050506111d4565b005b34801561060957600080fd5b50610612611220565b6040518080602001828103825283818151815260200191508051906020019080838360005b83811015610652578082015181840152602081019050610637565b50505050905090810190601f16801561067f5780820380516001836020036101000a031916815260200191505b509250505060405180910390f35b34801561069957600080fd5b506106b860048036038101908080359060200190929190505050611259565b604051808273ffffffffffffffffffffffffffffffffffffffff1673ffffffffffffffffffffffffffffffffffffffff16815260200191505060405180910390f35b34801561070657600080fd5b50610745600480360381019080803573ffffffffffffffffffffffffffffffffffffffff1690602001909291908035906020019092919050505061128c565b005b34801561075357600080fd5b5061077260048036038101908080359060200190929190505050611327565b604051808873ffffffffffffffffffffffffffffffffffffffff1673ffffffffffffffffffffffffffffffffffffffff1681526020018763ffffffff1663ffffffff168152602001806020018681526020018567ffffffffffffffff1667ffffffffffffffff1681526020018460ff1660ff1681526020018373ffffffffffffffffffffffffffffffffffffffff1673ffffffffffffffffffffffffffffffffffffffff168152602001828103825287818151815260200191508051906020019060200280838360005b8381101561085757808201518184015260208101905061083c565b505050509050019850505050505050505060405180910390f35b600060405180807f737570706f727473496e74657266616365286279746573342900000000000000815250601901905060405180910390207bffffffffffffffffffffffffffffffffffffffffffffffffffffffff1916827bffffffffffffffffffffffffffffffffffffffffffffffffffffffff19161480610b44575060405180807f746f6b656e734f664f776e6572286164647265737329000000000000000000008152506016019050604051809103902060405180807f7472616e7366657246726f6d28616464726573732c616464726573732c75696e81526020017f74323536290000000000000000000000000000000000000000000000000000008152506025019050604051809103902060405180807f7472616e7366657228616464726573732c75696e7432353629000000000000008152506019019050604051809103902060405180807f617070726f766528616464726573732c75696e743235362900000000000000008152506018019050604051809103902060405180807f6f776e65724f662875696e7432353629000000000000000000000000000000008152506010019050604051809103902060405180807f62616c616e63654f6628616464726573732900000000000000000000000000008152506012019050604051809103902060405180807f746f74616c537570706c79282900000000000000000000000000000000000000815250600d019050604051809103902060405180807f73796d626f6c28290000000000000000000000000000000000000000000000008152506008019050604051809103902060405180807f6e616d65282900000000000000000000000000000000000000000000000000008152506006019050604051809103902018181818181818187bffffffffffffffffffffffffffffffffffffffffffffffffffffffff1916827bffffffffffffffffffffffffffffffffffffffffffffffffffffffff1916145b9050919050565b6040805190810160405280600981526020017f5a65726f546f6b656e000000000000000000000000000000000000000000000081525081565b610b8e33826115c6565b1515610b9957600080fd5b610ba38282611632565b5050565b6000610bb433848461178d565b905092915050565b60008080549050905090565b60016020528060005260406000206000915054906101000a900473ffffffffffffffffffffffffffffffffffffffff1681565b600073ffffffffffffffffffffffffffffffffffffffff168273ffffffffffffffffffffffffffffffffffffffff1614151515610c3757600080fd5b3073ffffffffffffffffffffffffffffffffffffffff168273ffffffffffffffffffffffffffffffffffffffff1614151515610c7257600080fd5b610c7c33826119d1565b1515610c8757600080fd5b610c9183826115c6565b1515610c9c57600080fd5b610ca7838383611a3d565b505050565b60008080549050905090565b60006001600083815260200190815260200160002060009054906101000a900473ffffffffffffffffffffffffffffffffffffffff169050600073ffffffffffffffffffffffffffffffffffffffff168173ffffffffffffffffffffffffffffffffffffffff1614151515610d2c57600080fd5b919050565b60608060008060008080549050604051908082528060200260200182016040528015610d6c5781602001602082028038833980820191505090505b509350600080549050925060009150600090505b82821015610e22573373ffffffffffffffffffffffffffffffffffffffff166001600084815260200190815260200160002060009054906101000a900473ffffffffffffffffffffffffffffffffffffffff1673ffffffffffffffffffffffffffffffffffffffff161415610e1557818482815181101515610dfe57fe5b906020019060200201818152505080806001019150505b8180600101925050610d80565b8394505050505090565b6000600260008373ffffffffffffffffffffffffffffffffffffffff1673ffffffffffffffffffffffffffffffffffffffff168152602001908152602001600020549050919050565b600080600080600085815481101515610e8a57fe5b9060005260206000209060040201600101600c9054906101000a900460ff1660ff16141515610eb857600080fd5b42600085815481101515610ec857fe5b906000526020600020906004020160010160009054906101000a900467ffffffffffffffff1667ffffffffffffffff1611151515610f0557600080fd5b60008085815481101515610f1557fe5b906000526020600020906004020160020180549050111515610f3657600080fd5b60008085815481101515610f4657fe5b906000526020600020906004020160030180549050111515610f6757600080fd5b6001600085815481101515610f7857fe5b9060005260206000209060040201600101600c6101000a81548160ff021916908360ff160217905550610faa84611c3f565b9250600084815481101515610fbb57fe5b906000526020600020906004020160020183815481101515610fd957fe5b9060005260206000200160009054906101000a900473ffffffffffffffffffffffffffffffffffffffff1691506001600085815260200190815260200160002060009054906101000a900473ffffffffffffffffffffffffffffffffffffffff169050611047818386611a3d565b600260008581548110151561105857fe5b9060005260206000209060040201600101600c6101000a81548160ff021916908360ff16021790555050505050565b606060006060600080600061109b87610e2c565b945060008514156110de5760006040519080825280602002602001820160405280156110d65781602001602082028038833980820191505090505b5095506111ca565b8460405190808252806020026020018201604052801561110d5781602001602082028038833980820191505090505b509350611118610bbc565b925060009150600190505b82811115156111c6578673ffffffffffffffffffffffffffffffffffffffff166001600083815260200190815260200160002060009054906101000a900473ffffffffffffffffffffffffffffffffffffffff1673ffffffffffffffffffffffffffffffffffffffff1614156111b9578084838151811015156111a257fe5b906020019060200201818152505081806001019250505b8080600101915050611123565b8395505b5050505050919050565b600080838154811015156111e457fe5b9060005260206000209060040201600101600c9054906101000a900460ff1660ff1614151561121257600080fd5b61121c8282611d33565b5050565b6040805190810160405280600481526020017f5a45524f0000000000000000000000000000000000000000000000000000000081525081565b60036020528060005260406000206000915054906101000a900473ffffffffffffffffffffffffffffffffffffffff1681565b600073ffffffffffffffffffffffffffffffffffffffff168273ffffffffffffffffffffffffffffffffffffffff16141515156112c857600080fd5b3073ffffffffffffffffffffffffffffffffffffffff168273ffffffffffffffffffffffffffffffffffffffff161415151561130357600080fd5b61130d33826115c6565b151561131857600080fd5b611323338383611a3d565b5050565b600080606060008060008061133a611e0b565b60008981548110151561134957fe5b906000526020600020906004020160e060405190810160405290816000820160009054906101000a900473ffffffffffffffffffffffffffffffffffffffff1673ffffffffffffffffffffffffffffffffffffffff1673ffffffffffffffffffffffffffffffffffffffff1681526020016000820160149054906101000a900467ffffffffffffffff1667ffffffffffffffff1667ffffffffffffffff1681526020016001820160009054906101000a900467ffffffffffffffff1667ffffffffffffffff1667ffffffffffffffff1681526020016001820160089054906101000a900463ffffffff1663ffffffff1663ffffffff16815260200160018201600c9054906101000a900460ff1660ff1660ff168152602001600282018054806020026020016040519081016040528092919081815260200182805480156114e557602002820191906000526020600020905b8160009054906101000a900473ffffffffffffffffffffffffffffffffffffffff1673ffffffffffffffffffffffffffffffffffffffff168152602001906001019080831161149b575b505050505081526020016003820180548060200260200160405190810160405280929190818152602001828054801561154157602002820191906000526020600020905b81546000191681526020019060010190808311611529575b505050505081525050905080600001519750806060015196508060a0015195508060a00151519450806040015193508060800151925060028360ff1614156115ba57600160008a815260200190815260200160002060009054906101000a900473ffffffffffffffffffffffffffffffffffffffff1691505b50919395979092949650565b60008273ffffffffffffffffffffffffffffffffffffffff166001600084815260200190815260200160002060009054906101000a900473ffffffffffffffffffffffffffffffffffffffff1673ffffffffffffffffffffffffffffffffffffffff1614905092915050565b816003600083815260200190815260200160002060006101000a81548173ffffffffffffffffffffffffffffffffffffffff021916908373ffffffffffffffffffffffffffffffffffffffff1602179055507f8c5be1e5ebec7d5bd14f71427d1e84f3dd0314c0f7b2291e5b200ac8c7c3b9256001600083815260200190815260200160002060009054906101000a900473ffffffffffffffffffffffffffffffffffffffff166003600084815260200190815260200160002060009054906101000a900473ffffffffffffffffffffffffffffffffffffffff1683604051808473ffffffffffffffffffffffffffffffffffffffff1673ffffffffffffffffffffffffffffffffffffffff1681526020018373ffffffffffffffffffffffffffffffffffffffff1673ffffffffffffffffffffffffffffffffffffffff168152602001828152602001935050505060405180910390a15050565b6000611797611e0b565b60e0604051908101604052808673ffffffffffffffffffffffffffffffffffffffff1681526020014267ffffffffffffffff1681526020018567ffffffffffffffff1681526020018463ffffffff168152602001600060ff16815260200160006040519080825280602002602001820160405280156118255781602001602082028038833980820191505090505b508152602001600060405190808252806020026020018201604052801561185b5781602001602082028038833980820191505090505b50815250905060016000829080600181540180825580915050906001820390600052602060002090600402016000909192909190915060008201518160000160006101000a81548173ffffffffffffffffffffffffffffffffffffffff021916908373ffffffffffffffffffffffffffffffffffffffff16021790555060208201518160000160146101000a81548167ffffffffffffffff021916908367ffffffffffffffff16021790555060408201518160010160006101000a81548167ffffffffffffffff021916908367ffffffffffffffff16021790555060608201518160010160086101000a81548163ffffffff021916908363ffffffff160217905550608082015181600101600c6101000a81548160ff021916908360ff16021790555060a082015181600201908051906020019061199a929190611e7c565b5060c08201518160030190805190602001906119b7929190611f06565b5050500391506119c960008684611a3d565b509392505050565b60008273ffffffffffffffffffffffffffffffffffffffff166003600084815260200190815260200160002060009054906101000a900473ffffffffffffffffffffffffffffffffffffffff1673ffffffffffffffffffffffffffffffffffffffff1614905092915050565b600260008373ffffffffffffffffffffffffffffffffffffffff1673ffffffffffffffffffffffffffffffffffffffff16815260200190815260200160002060008154809291906001019190505550816001600083815260200190815260200160002060006101000a81548173ffffffffffffffffffffffffffffffffffffffff021916908373ffffffffffffffffffffffffffffffffffffffff160217905550600073ffffffffffffffffffffffffffffffffffffffff168373ffffffffffffffffffffffffffffffffffffffff16141515611b9b57600260008473ffffffffffffffffffffffffffffffffffffffff1673ffffffffffffffffffffffffffffffffffffffff16815260200190815260200160002060008154809291906001900391905055506003600082815260200190815260200160002060006101000a81549073ffffffffffffffffffffffffffffffffffffffff02191690555b7fddf252ad1be2c89b69c2b068fc378daa952ba7f163c4a11628f55a4df523b3ef838383604051808473ffffffffffffffffffffffffffffffffffffffff1673ffffffffffffffffffffffffffffffffffffffff1681526020018373ffffffffffffffffffffffffffffffffffffffff1673ffffffffffffffffffffffffffffffffffffffff168152602001828152602001935050505060405180910390a1505050565b60008060008084815481101515611c5257fe5b90600052602060002090600402016003016000815481101515611c7157fe5b90600052602060002001549150600090505b600084815481101515611c9257fe5b906000526020600020906004020160030180549050811015611cf757600084815481101515611cbd57fe5b906000526020600020906004020160030181815481101515611cdb57fe5b9060005260206000200154821891508080600101915050611c83565b600084815481101515611d0657fe5b9060005260206000209060040201600201805490508260019004811515611d2957fe5b0692505050919050565b600082815481101515611d4257fe5b90600052602060002090600402016002013390806001815401808255809150509060018203906000526020600020016000909192909190916101000a81548173ffffffffffffffffffffffffffffffffffffffff021916908373ffffffffffffffffffffffffffffffffffffffff16021790555050600082815481101515611dc657fe5b90600052602060002090600402016003018190806001815401808255809150509060018203906000526020600020016000909192909190915090600019169055505050565b60e060405190810160405280600073ffffffffffffffffffffffffffffffffffffffff168152602001600067ffffffffffffffff168152602001600067ffffffffffffffff168152602001600063ffffffff168152602001600060ff16815260200160608152602001606081525090565b828054828255906000526020600020908101928215611ef5579160200282015b82811115611ef45782518260006101000a81548173ffffffffffffffffffffffffffffffffffffffff021916908373ffffffffffffffffffffffffffffffffffffffff16021790555091602001919060010190611e9c565b5b509050611f029190611f59565b5090565b828054828255906000526020600020908101928215611f48579160200282015b82811115611f47578251829060001916905591602001919060010190611f26565b5b509050611f559190611f9c565b5090565b611f9991905b80821115611f9557600081816101000a81549073ffffffffffffffffffffffffffffffffffffffff021916905550600101611f5f565b5090565b90565b611fbe91905b80821115611fba576000816000905550600101611fa2565b5090565b905600a165627a7a72305820bf1168a7da39eeb89ac9c8efcdf9d7e69ab1dab1910e2cd13b012412d2a6465a0029",
  "source": "pragma solidity ^0.4.18;\n\nimport \"./ERC721.sol\";\n\ncontract ZeroToken is ERC721 {\n  /*** CONSTANTS ***/\n\n  string public constant name = \"ZeroToken\";\n  string public constant symbol = \"ZERO\";\n\n  bytes4 constant InterfaceID_ERC165 =\n    bytes4(keccak256('supportsInterface(bytes4)'));\n\n  bytes4 constant InterfaceID_ERC721 =\n    bytes4(keccak256('name()')) ^\n    bytes4(keccak256('symbol()')) ^\n    bytes4(keccak256('totalSupply()')) ^\n    bytes4(keccak256('balanceOf(address)')) ^\n    bytes4(keccak256('ownerOf(uint256)')) ^\n    bytes4(keccak256('approve(address,uint256)')) ^\n    bytes4(keccak256('transfer(address,uint256)')) ^\n    bytes4(keccak256('transferFrom(address,address,uint256)')) ^\n    bytes4(keccak256('tokensOfOwner(address)'));\n\n\n  /*** DATA TYPES ***/\n\n  struct Token {\n    address mintedBy;\n    uint64 createTime;\n    uint64 openTime;\n    uint32 limit;\n    uint8 status;\n    address[] participant;\n    bytes32[] parterRandomKey;\n  }\n\n\n  /*** STORAGE ***/\n\n  Token[] tokens;\n\n  mapping (uint256 => address) public tokenIndexToOwner;\n  mapping (address => uint256) ownershipTokenCount;\n  mapping (uint256 => address) public tokenIndexToApproved;\n\n\n  /*** INTERNAL FUNCTIONS ***/\n\n  function _owns(address _claimant, uint256 _tokenId) internal view returns (bool) {\n    return tokenIndexToOwner[_tokenId] == _claimant;\n  }\n\n  function _approvedFor(address _claimant, uint256 _tokenId) internal view returns (bool) {\n    return tokenIndexToApproved[_tokenId] == _claimant;\n  }\n\n  function _approve(address _to, uint256 _tokenId) internal {\n    tokenIndexToApproved[_tokenId] = _to;\n\n    emit Approval(tokenIndexToOwner[_tokenId], tokenIndexToApproved[_tokenId], _tokenId);\n  }\n\n  function _transfer(address _from, address _to, uint256 _tokenId) internal {\n    ownershipTokenCount[_to]++;\n    tokenIndexToOwner[_tokenId] = _to;\n\n    if (_from != address(0)) {\n      ownershipTokenCount[_from]--;\n      delete tokenIndexToApproved[_tokenId];\n    }\n\n    emit Transfer(_from, _to, _tokenId);\n  }\n\n  function _mint(address _owner, uint64 open_time, uint32 _limit) internal returns (uint256 tokenId) {\n    Token memory token = Token({\n      mintedBy: _owner,\n      createTime: uint64(now),\n      openTime: open_time,\n      limit: _limit,\n      status: 0,\n      participant: new address[](0),\n      parterRandomKey: new bytes32[](0)\n    });\n    tokenId = tokens.push(token) - 1;\n\n    _transfer(0, _owner, tokenId);\n  }\n\n\n  /*** ERC721 IMPLEMENTATION ***/\n\n  function supportsInterface(bytes4 _interfaceID) external view returns (bool) {\n    return ((_interfaceID == InterfaceID_ERC165) || (_interfaceID == InterfaceID_ERC721));\n  }\n\n  function totalSupply() public view returns (uint256) {\n    return tokens.length;\n  }\n\n  function balanceOf(address _owner) public view returns (uint256) {\n    return ownershipTokenCount[_owner];\n  }\n\n  function ownerOf(uint256 _tokenId) external view returns (address owner) {\n    owner = tokenIndexToOwner[_tokenId];\n\n    require(owner != address(0));\n  }\n\n  function approve(address _to, uint256 _tokenId) external {\n    require(_owns(msg.sender, _tokenId));\n\n    _approve(_to, _tokenId);\n  }\n\n  function transfer(address _to, uint256 _tokenId) external {\n    require(_to != address(0));\n    require(_to != address(this));\n    require(_owns(msg.sender, _tokenId));\n\n    _transfer(msg.sender, _to, _tokenId);\n  }\n\n  function transferFrom(address _from, address _to, uint256 _tokenId) external {\n    require(_to != address(0));\n    require(_to != address(this));\n    require(_approvedFor(msg.sender, _tokenId));\n    require(_owns(_from, _tokenId));\n\n    _transfer(_from, _to, _tokenId);\n  }\n\n  function tokensOfOwner(address _owner) external view returns (uint256[]) {\n    uint256 balance = balanceOf(_owner);\n\n    if (balance == 0) {\n      return new uint256[](0);\n    } else {\n      uint256[] memory result = new uint256[](balance);\n      uint256 maxTokenId = totalSupply();\n      uint256 idx = 0;\n\n      uint256 tokenId;\n      for (tokenId = 1; tokenId <= maxTokenId; tokenId++) {\n        if (tokenIndexToOwner[tokenId] == _owner) {\n          result[idx] = tokenId;\n          idx++;\n        }\n      }\n    }\n\n    return result;\n  }\n\n  function add_parter (uint256 _tokenId, bytes32 _value) internal {\n    tokens[_tokenId].participant.push(msg.sender);\n    tokens[_tokenId].parterRandomKey.push(_value);\n  }\n  /*** OTHER EXTERNAL FUNCTIONS ***/\n\n  function createZero(uint64 open_time, uint32 _limit) external returns (uint256) {\n    return _mint(msg.sender, open_time, _limit);\n  }\n\n  function len() external view returns(uint256) {\n    return tokens.length;\n  }\n  \n  function getToken(uint256 _tokenId) external view returns (\n    address mintedBy, \n    uint32 limit,\n    address[] participant,\n    uint256 le,\n    uint64 openTime,\n    uint8 status,\n    address winner) {\n    Token memory token = tokens[_tokenId];\n\n    mintedBy = token.mintedBy;\n    limit = token.limit;\n    participant = token.participant;\n    le = token.participant.length;\n    openTime = token.openTime;\n    status = token.status;\n    if (status == 2){\n      winner = tokenIndexToOwner[_tokenId];\n    }\n  }\n\n  function  balanceOfToken() external view returns(uint256[]){\n    uint256[] memory a = new uint256[](tokens.length);\n    uint256 maxlength = tokens.length;\n    uint256 idx = 0;\n    uint256 resultIndex = 0;\n\n    for (idx; idx< maxlength; idx++){\n      if (tokenIndexToOwner[idx] == msg.sender) {\n        a[resultIndex] = idx;\n        resultIndex++;\n      }\n    }\n    return a;\n  }\n  \n  function _getTokenRandom (uint256 _tokenId) internal view returns(uint256 res) {\n    bytes32 _value = tokens[_tokenId].parterRandomKey[0];\n\n    for (uint256 i = 0; i < tokens[_tokenId].parterRandomKey.length; i++) {\n        _value = _value ^ tokens[_tokenId].parterRandomKey[i];\n    }\n\n    res = uint256(_value) % tokens[_tokenId].participant.length;\n  }\n  \n  // function check_token_time(uint256 _tokenId) external view returns (uint now_time, address msg_sender){\n  //   now_time = now;\n  //   msg_sender = msg.sender;\n  // }\n\n  function openPrice(uint256 _tokenId) external {\n    require(tokens[_tokenId].status == 0);\n    require(tokens[_tokenId].openTime <= now);\n    require (tokens[_tokenId].participant.length > 0);\n    require (tokens[_tokenId].parterRandomKey.length > 0);\n\n    tokens[_tokenId].status = 1;\n\n    uint256 random_index = _getTokenRandom(_tokenId);\n    address winner = tokens[_tokenId].participant[random_index];\n    address token_owner = tokenIndexToOwner[_tokenId];\n    _transfer(token_owner, winner, _tokenId);\n\n    tokens[_tokenId].status = 2;\n  }\n  \n\n  function  partIn (uint256 _tokenId, bytes32 _value) external {\n    require(tokens[_tokenId].status == 0);\n    add_parter(_tokenId, _value);\n  }\n\n}\n",
  "sourcePath": "/Users/zhangyeshuo/Projects/test/zero/contracts/ZeroToken.sol",
  "compiler": {
    "name": "solc",
    "version": "0.4.23+commit.124ca40d.Emscripten.clang"
  },
  "schemaVersion": "2.0.0",
  "updatedAt": "2018-06-12T15:23:48.223Z"
}