{
  "contractName": "WordCup",
  "abi": [
    {
      "constant": true,
      "inputs": [],
      "name": "name",
      "outputs": [
        {
          "name": "",
          "type": "string"
        }
      ],
      "payable": false,
      "stateMutability": "view",
      "type": "function"
    },
    {
      "constant": false,
      "inputs": [
        {
          "name": "_spender",
          "type": "address"
        },
        {
          "name": "_value",
          "type": "uint256"
        }
      ],
      "name": "approve",
      "outputs": [
        {
          "name": "success",
          "type": "bool"
        }
      ],
      "payable": false,
      "stateMutability": "nonpayable",
      "type": "function"
    },
    {
      "constant": true,
      "inputs": [],
      "name": "ceoAddress",
      "outputs": [
        {
          "name": "",
          "type": "address"
        }
      ],
      "payable": false,
      "stateMutability": "view",
      "type": "function"
    },
    {
      "constant": true,
      "inputs": [],
      "name": "totalSupply",
      "outputs": [
        {
          "name": "",
          "type": "uint256"
        }
      ],
      "payable": false,
      "stateMutability": "view",
      "type": "function"
    },
    {
      "constant": false,
      "inputs": [
        {
          "name": "_from",
          "type": "address"
        },
        {
          "name": "_to",
          "type": "address"
        },
        {
          "name": "_value",
          "type": "uint256"
        }
      ],
      "name": "transferFrom",
      "outputs": [
        {
          "name": "success",
          "type": "bool"
        }
      ],
      "payable": false,
      "stateMutability": "nonpayable",
      "type": "function"
    },
    {
      "constant": true,
      "inputs": [],
      "name": "decimals",
      "outputs": [
        {
          "name": "",
          "type": "uint256"
        }
      ],
      "payable": false,
      "stateMutability": "view",
      "type": "function"
    },
    {
      "constant": false,
      "inputs": [],
      "name": "unpause",
      "outputs": [
        {
          "name": "",
          "type": "bool"
        }
      ],
      "payable": false,
      "stateMutability": "nonpayable",
      "type": "function"
    },
    {
      "constant": true,
      "inputs": [],
      "name": "paused",
      "outputs": [
        {
          "name": "",
          "type": "bool"
        }
      ],
      "payable": false,
      "stateMutability": "view",
      "type": "function"
    },
    {
      "constant": true,
      "inputs": [
        {
          "name": "_owner",
          "type": "address"
        }
      ],
      "name": "balanceOf",
      "outputs": [
        {
          "name": "balance",
          "type": "uint256"
        }
      ],
      "payable": false,
      "stateMutability": "view",
      "type": "function"
    },
    {
      "constant": false,
      "inputs": [],
      "name": "pause",
      "outputs": [
        {
          "name": "",
          "type": "bool"
        }
      ],
      "payable": false,
      "stateMutability": "nonpayable",
      "type": "function"
    },
    {
      "constant": true,
      "inputs": [],
      "name": "owner",
      "outputs": [
        {
          "name": "",
          "type": "address"
        }
      ],
      "payable": false,
      "stateMutability": "view",
      "type": "function"
    },
    {
      "constant": true,
      "inputs": [],
      "name": "symbol",
      "outputs": [
        {
          "name": "",
          "type": "string"
        }
      ],
      "payable": false,
      "stateMutability": "view",
      "type": "function"
    },
    {
      "constant": false,
      "inputs": [
        {
          "name": "_to",
          "type": "address"
        },
        {
          "name": "_value",
          "type": "uint256"
        }
      ],
      "name": "transfer",
      "outputs": [
        {
          "name": "success",
          "type": "bool"
        }
      ],
      "payable": false,
      "stateMutability": "nonpayable",
      "type": "function"
    },
    {
      "constant": true,
      "inputs": [
        {
          "name": "_owner",
          "type": "address"
        },
        {
          "name": "_spender",
          "type": "address"
        }
      ],
      "name": "allowance",
      "outputs": [
        {
          "name": "remaining",
          "type": "uint256"
        }
      ],
      "payable": false,
      "stateMutability": "view",
      "type": "function"
    },
    {
      "constant": false,
      "inputs": [
        {
          "name": "newOwner",
          "type": "address"
        }
      ],
      "name": "transferOwnership",
      "outputs": [],
      "payable": false,
      "stateMutability": "nonpayable",
      "type": "function"
    },
    {
      "inputs": [],
      "payable": false,
      "stateMutability": "nonpayable",
      "type": "constructor"
    },
    {
      "payable": true,
      "stateMutability": "payable",
      "type": "fallback"
    },
    {
      "anonymous": false,
      "inputs": [
        {
          "indexed": true,
          "name": "from",
          "type": "address"
        },
        {
          "indexed": false,
          "name": "_tokenId",
          "type": "uint256"
        }
      ],
      "name": "PartIn",
      "type": "event"
    },
    {
      "anonymous": false,
      "inputs": [
        {
          "indexed": true,
          "name": "from",
          "type": "address"
        },
        {
          "indexed": false,
          "name": "_tokenId",
          "type": "uint256"
        }
      ],
      "name": "Create",
      "type": "event"
    },
    {
      "anonymous": false,
      "inputs": [],
      "name": "Pause",
      "type": "event"
    },
    {
      "anonymous": false,
      "inputs": [],
      "name": "Unpause",
      "type": "event"
    },
    {
      "anonymous": false,
      "inputs": [
        {
          "indexed": true,
          "name": "from",
          "type": "address"
        },
        {
          "indexed": true,
          "name": "to",
          "type": "address"
        },
        {
          "indexed": false,
          "name": "value",
          "type": "uint256"
        }
      ],
      "name": "Transfer",
      "type": "event"
    },
    {
      "anonymous": false,
      "inputs": [
        {
          "indexed": true,
          "name": "from",
          "type": "address"
        },
        {
          "indexed": true,
          "name": "to",
          "type": "address"
        },
        {
          "indexed": false,
          "name": "value",
          "type": "uint256"
        }
      ],
      "name": "Return",
      "type": "event"
    },
    {
      "anonymous": false,
      "inputs": [
        {
          "indexed": true,
          "name": "owner",
          "type": "address"
        },
        {
          "indexed": true,
          "name": "spender",
          "type": "address"
        },
        {
          "indexed": false,
          "name": "value",
          "type": "uint256"
        }
      ],
      "name": "Approval",
      "type": "event"
    },
    {
      "constant": false,
      "inputs": [
        {
          "name": "_red",
          "type": "bytes32"
        },
        {
          "name": "_blue",
          "type": "bytes32"
        }
      ],
      "name": "createGame",
      "outputs": [
        {
          "name": "tokenId",
          "type": "uint256"
        }
      ],
      "payable": false,
      "stateMutability": "nonpayable",
      "type": "function"
    },
    {
      "constant": false,
      "inputs": [
        {
          "name": "_tokenId",
          "type": "uint256"
        },
        {
          "name": "_price",
          "type": "uint256"
        },
        {
          "name": "_side",
          "type": "uint256"
        }
      ],
      "name": "partIn",
      "outputs": [],
      "payable": false,
      "stateMutability": "nonpayable",
      "type": "function"
    },
    {
      "constant": true,
      "inputs": [],
      "name": "getContractAddress",
      "outputs": [
        {
          "name": "",
          "type": "address"
        }
      ],
      "payable": false,
      "stateMutability": "view",
      "type": "function"
    },
    {
      "constant": true,
      "inputs": [],
      "name": "getContractBalance",
      "outputs": [
        {
          "name": "",
          "type": "uint256"
        }
      ],
      "payable": false,
      "stateMutability": "view",
      "type": "function"
    },
    {
      "constant": true,
      "inputs": [],
      "name": "getCeoAddress",
      "outputs": [
        {
          "name": "",
          "type": "address"
        }
      ],
      "payable": false,
      "stateMutability": "view",
      "type": "function"
    },
    {
      "constant": true,
      "inputs": [
        {
          "name": "_tokenId",
          "type": "uint256"
        }
      ],
      "name": "getGame",
      "outputs": [
        {
          "name": "_seller",
          "type": "address"
        },
        {
          "name": "_status",
          "type": "uint256"
        },
        {
          "name": "redLength",
          "type": "uint256"
        },
        {
          "name": "blueLength",
          "type": "uint256"
        },
        {
          "name": "equalLength",
          "type": "uint256"
        },
        {
          "name": "all",
          "type": "uint256"
        },
        {
          "name": "_red",
          "type": "bytes32"
        },
        {
          "name": "_blue",
          "type": "bytes32"
        },
        {
          "name": "_winner",
          "type": "uint256"
        },
        {
          "name": "_prizePool",
          "type": "uint256"
        }
      ],
      "payable": false,
      "stateMutability": "view",
      "type": "function"
    },
    {
      "constant": true,
      "inputs": [],
      "name": "getPartIn",
      "outputs": [
        {
          "name": "",
          "type": "uint256[]"
        }
      ],
      "payable": false,
      "stateMutability": "view",
      "type": "function"
    },
    {
      "constant": true,
      "inputs": [],
      "name": "getCreate",
      "outputs": [
        {
          "name": "",
          "type": "uint256[]"
        }
      ],
      "payable": false,
      "stateMutability": "view",
      "type": "function"
    },
    {
      "constant": false,
      "inputs": [
        {
          "name": "_tokenId",
          "type": "uint256"
        },
        {
          "name": "_winner",
          "type": "uint256"
        }
      ],
      "name": "openGame",
      "outputs": [
        {
          "name": "",
          "type": "bool"
        }
      ],
      "payable": false,
      "stateMutability": "nonpayable",
      "type": "function"
    }
  ],
  "bytecode": "0x60806040526000600360146101000a81548160ff0219169083151502179055506040805190810160405280600e81526020017f576f72642043757020546f6b656e000000000000000000000000000000000000815250600490805190602001906200006c929190620001af565b506040805190810160405280600381526020017f574354000000000000000000000000000000000000000000000000000000000081525060059080519060200190620000ba929190620001af565b506008600655348015620000cd57600080fd5b5033600360006101000a81548173ffffffffffffffffffffffffffffffffffffffff021916908373ffffffffffffffffffffffffffffffffffffffff160217905550600654600a0a642e90edd00002600081905550600054600160003373ffffffffffffffffffffffffffffffffffffffff1673ffffffffffffffffffffffffffffffffffffffff1681526020019081526020016000208190555033600760006101000a81548173ffffffffffffffffffffffffffffffffffffffff021916908373ffffffffffffffffffffffffffffffffffffffff1602179055506200025e565b828054600181600116156101000203166002900490600052602060002090601f016020900481019282601f10620001f257805160ff191683800117855562000223565b8280016001018555821562000223579182015b828111156200022257825182559160200191906001019062000205565b5b50905062000232919062000236565b5090565b6200025b91905b80821115620002575760008160009055506001016200023d565b5090565b90565b6133fa806200026e6000396000f30060806040526004361061013e576000357c0100000000000000000000000000000000000000000000000000000000900463ffffffff168063045894ab1461014057806306fdde03146101ac578063095ea7b31461023c5780630a0f8168146102a157806318160ddd146102f857806323b872dd146103235780632f0f3f02146103a8578063313ce567146103e957806332a2c5d0146104145780633f4ba83a1461046b578063496254e71461049a5780635c975abb146104e95780636946bb5d146105185780636f9fb98a1461056b57806370a08231146105965780638456cb59146105ed5780638da5cb5b1461061c5780638e2ad5de1461067357806395d89b41146106df578063a2f77bcc1461076f578063a9059cbb1461082b578063dd62ed3e14610890578063e431f3c614610907578063f2fde38b1461095e575b005b34801561014c57600080fd5b506101556109a1565b6040518080602001828103825283818151815260200191508051906020019060200280838360005b8381101561019857808201518184015260208101905061017d565b505050509050019250505060405180910390f35b3480156101b857600080fd5b506101c1610aed565b6040518080602001828103825283818151815260200191508051906020019080838360005b838110156102015780820151818401526020810190506101e6565b50505050905090810190601f16801561022e5780820380516001836020036101000a031916815260200191505b509250505060405180910390f35b34801561024857600080fd5b50610287600480360381019080803573ffffffffffffffffffffffffffffffffffffffff16906020019092919080359060200190929190505050610b8b565b604051808215151515815260200191505060405180910390f35b3480156102ad57600080fd5b506102b6610bbb565b604051808273ffffffffffffffffffffffffffffffffffffffff1673ffffffffffffffffffffffffffffffffffffffff16815260200191505060405180910390f35b34801561030457600080fd5b5061030d610be1565b6040518082815260200191505060405180910390f35b34801561032f57600080fd5b5061038e600480360381019080803573ffffffffffffffffffffffffffffffffffffffff169060200190929190803573ffffffffffffffffffffffffffffffffffffffff16906020019092919080359060200190929190505050610be7565b604051808215151515815260200191505060405180910390f35b3480156103b457600080fd5b506103e7600480360381019080803590602001909291908035906020019092919080359060200190929190505050610e95565b005b3480156103f557600080fd5b506103fe6111d4565b6040518082815260200191505060405180910390f35b34801561042057600080fd5b506104296111da565b604051808273ffffffffffffffffffffffffffffffffffffffff1673ffffffffffffffffffffffffffffffffffffffff16815260200191505060405180910390f35b34801561047757600080fd5b506104806111e2565b604051808215151515815260200191505060405180910390f35b3480156104a657600080fd5b506104cf60048036038101908080359060200190929190803590602001909291905050506112a9565b604051808215151515815260200191505060405180910390f35b3480156104f557600080fd5b506104fe611417565b604051808215151515815260200191505060405180910390f35b34801561052457600080fd5b506105556004803603810190808035600019169060200190929190803560001916906020019092919050505061142a565b6040518082815260200191505060405180910390f35b34801561057757600080fd5b5061058061148d565b6040518082815260200191505060405180910390f35b3480156105a257600080fd5b506105d7600480360381019080803573ffffffffffffffffffffffffffffffffffffffff16906020019092919050505061149d565b6040518082815260200191505060405180910390f35b3480156105f957600080fd5b506106026114af565b604051808215151515815260200191505060405180910390f35b34801561062857600080fd5b50610631611577565b604051808273ffffffffffffffffffffffffffffffffffffffff1673ffffffffffffffffffffffffffffffffffffffff16815260200191505060405180910390f35b34801561067f57600080fd5b5061068861159d565b6040518080602001828103825283818151815260200191508051906020019060200280838360005b838110156106cb5780820151818401526020810190506106b0565b505050509050019250505060405180910390f35b3480156106eb57600080fd5b506106f46116e9565b6040518080602001828103825283818151815260200191508051906020019080838360005b83811015610734578082015181840152602081019050610719565b50505050905090810190601f1680156107615780820380516001836020036101000a031916815260200191505b509250505060405180910390f35b34801561077b57600080fd5b5061079a60048036038101908080359060200190929190505050611787565b604051808b73ffffffffffffffffffffffffffffffffffffffff1673ffffffffffffffffffffffffffffffffffffffff1681526020018a8152602001898152602001888152602001878152602001868152602001856000191660001916815260200184600019166000191681526020018381526020018281526020019a505050505050505050505060405180910390f35b34801561083757600080fd5b50610876600480360381019080803573ffffffffffffffffffffffffffffffffffffffff16906020019092919080359060200190929190505050611a64565b604051808215151515815260200191505060405180910390f35b34801561089c57600080fd5b506108f1600480360381019080803573ffffffffffffffffffffffffffffffffffffffff169060200190929190803573ffffffffffffffffffffffffffffffffffffffff169060200190929190505050611a94565b6040518082815260200191505060405180910390f35b34801561091357600080fd5b5061091c611b1b565b604051808273ffffffffffffffffffffffffffffffffffffffff1673ffffffffffffffffffffffffffffffffffffffff16815260200191505060405180910390f35b34801561096a57600080fd5b5061099f600480360381019080803573ffffffffffffffffffffffffffffffffffffffff169060200190929190505050611b45565b005b6060806000600b60003373ffffffffffffffffffffffffffffffffffffffff1673ffffffffffffffffffffffffffffffffffffffff16815260200190815260200160002080549050604051908082528060200260200182016040528015610a175781602001602082028038833980820191505090505b5091505b600b60003373ffffffffffffffffffffffffffffffffffffffff1673ffffffffffffffffffffffffffffffffffffffff16815260200190815260200160002080549050811015610ae557600b60003373ffffffffffffffffffffffffffffffffffffffff1673ffffffffffffffffffffffffffffffffffffffff16815260200190815260200160002081815481101515610ab157fe5b90600052602060002001548282815181101515610aca57fe5b90602001906020020181815250508080600101915050610a1b565b819250505090565b60048054600181600116156101000203166002900480601f016020809104026020016040519081016040528092919081815260200182805460018160011615610100020316600290048015610b835780601f10610b5857610100808354040283529160200191610b83565b820191906000526020600020905b815481529060010190602001808311610b6657829003601f168201915b505050505081565b6000600360149054906101000a900460ff16151515610ba957600080fd5b610bb38383611c1c565b905092915050565b600760009054906101000a900473ffffffffffffffffffffffffffffffffffffffff1681565b60005481565b600080606060048101600036905010151515610c0257600080fd5b600260008773ffffffffffffffffffffffffffffffffffffffff1673ffffffffffffffffffffffffffffffffffffffff16815260200190815260200160002060003373ffffffffffffffffffffffffffffffffffffffff1673ffffffffffffffffffffffffffffffffffffffff168152602001908152602001600020549150610cca600160008773ffffffffffffffffffffffffffffffffffffffff1673ffffffffffffffffffffffffffffffffffffffff1681526020019081526020016000205485611d0e565b600160008773ffffffffffffffffffffffffffffffffffffffff1673ffffffffffffffffffffffffffffffffffffffff16815260200190815260200160002081905550610d56600160008873ffffffffffffffffffffffffffffffffffffffff1673ffffffffffffffffffffffffffffffffffffffff1681526020019081526020016000205485611d38565b600160008873ffffffffffffffffffffffffffffffffffffffff1673ffffffffffffffffffffffffffffffffffffffff16815260200190815260200160002081905550610da38285611d38565b600260008873ffffffffffffffffffffffffffffffffffffffff1673ffffffffffffffffffffffffffffffffffffffff16815260200190815260200160002060003373ffffffffffffffffffffffffffffffffffffffff1673ffffffffffffffffffffffffffffffffffffffff168152602001908152602001600020819055508473ffffffffffffffffffffffffffffffffffffffff168673ffffffffffffffffffffffffffffffffffffffff167fddf252ad1be2c89b69c2b068fc378daa952ba7f163c4a11628f55a4df523b3ef866040518082815260200191505060405180910390a36001925050509392505050565b610e9d613298565b600884815481101515610eac57fe5b906000526020600020906009020161012060405190810160405290816000820160009054906101000a900473ffffffffffffffffffffffffffffffffffffffff1673ffffffffffffffffffffffffffffffffffffffff1673ffffffffffffffffffffffffffffffffffffffff1681526020016001820154815260200160028201805480602002602001604051908101604052809291908181526020018280548015610fac57602002820191906000526020600020905b8160009054906101000a900473ffffffffffffffffffffffffffffffffffffffff1673ffffffffffffffffffffffffffffffffffffffff1681526020019060010190808311610f62575b505050505081526020016003820180548060200260200160405190810160405280929190818152602001828054801561103a57602002820191906000526020600020905b8160009054906101000a900473ffffffffffffffffffffffffffffffffffffffff1673ffffffffffffffffffffffffffffffffffffffff1681526020019060010190808311610ff0575b50505050508152602001600482018054806020026020016040519081016040528092919081815260200182805480156110c857602002820191906000526020600020905b8160009054906101000a900473ffffffffffffffffffffffffffffffffffffffff1673ffffffffffffffffffffffffffffffffffffffff168152602001906001019080831161107e575b50505050508152602001600582015460001916600019168152602001600682015460001916600019168152602001600782015481526020016008820154815250509050600082148061111a5750600182145b806111255750600282145b151561113057600080fd5b6000816020015114151561114357600080fd5b60008311151561115257600080fd5b8261115c3361149d565b1015151561116957600080fd5b6111733084611a64565b5061118033858585611d56565b3373ffffffffffffffffffffffffffffffffffffffff167ffa59d2e30525f67483d8abab9d8fa46837eb513043442e8f8a408e66e499fb4c856040518082815260200191505060405180910390a250505050565b60065481565b600030905090565b6000600360009054906101000a900473ffffffffffffffffffffffffffffffffffffffff1673ffffffffffffffffffffffffffffffffffffffff163373ffffffffffffffffffffffffffffffffffffffff1614151561124057600080fd5b600360149054906101000a900460ff16151561125b57600080fd5b6000600360146101000a81548160ff0219169083151502179055507f7805862f689e2f13df9f062ff482ad3ad112aca9e0847911ed832e158c525b3360405160405180910390a16001905090565b6000806008848154811015156112bb57fe5b9060005260206000209060090201600101541415156112d957600080fd5b6008838154811015156112e857fe5b906000526020600020906009020160000160009054906101000a900473ffffffffffffffffffffffffffffffffffffffff1673ffffffffffffffffffffffffffffffffffffffff163373ffffffffffffffffffffffffffffffffffffffff161415156113bc576040517f08c379a00000000000000000000000000000000000000000000000000000000081526004018080602001828103825260148152602001807f73656e6465722061646472657373206572726f7200000000000000000000000081525060200191505060405180910390fd5b60008214806113cb5750600182145b806113d65750600282145b15156113e157600080fd5b816008848154811015156113f157fe5b90600052602060002090600902016007018190555061140f8361200d565b905092915050565b600360149054906101000a900460ff1681565b600061143733848461259e565b90503373ffffffffffffffffffffffffffffffffffffffff167fcc9018de05b5f497ee7618d8830568d8ac2d45d0671b73d8f71c67e824122ec7826040518082815260200191505060405180910390a292915050565b60006114983061149d565b905090565b60006114a88261281f565b9050919050565b6000600360009054906101000a900473ffffffffffffffffffffffffffffffffffffffff1673ffffffffffffffffffffffffffffffffffffffff163373ffffffffffffffffffffffffffffffffffffffff1614151561150d57600080fd5b600360149054906101000a900460ff1615151561152957600080fd5b6001600360146101000a81548160ff0219169083151502179055507f6985a02210a168e66602d3235cb6db0e70f92b3ba4d376a33c0f3d9434bff62560405160405180910390a16001905090565b600360009054906101000a900473ffffffffffffffffffffffffffffffffffffffff1681565b6060806000600a60003373ffffffffffffffffffffffffffffffffffffffff1673ffffffffffffffffffffffffffffffffffffffff168152602001908152602001600020805490506040519080825280602002602001820160405280156116135781602001602082028038833980820191505090505b5091505b600a60003373ffffffffffffffffffffffffffffffffffffffff1673ffffffffffffffffffffffffffffffffffffffff168152602001908152602001600020805490508110156116e157600a60003373ffffffffffffffffffffffffffffffffffffffff1673ffffffffffffffffffffffffffffffffffffffff168152602001908152602001600020818154811015156116ad57fe5b906000526020600020015482828151811015156116c657fe5b90602001906020020181815250508080600101915050611617565b819250505090565b60058054600181600116156101000203166002900480601f01602080910402602001604051908101604052809291908181526020018280546001816001161561010002031660029004801561177f5780601f106117545761010080835404028352916020019161177f565b820191906000526020600020905b81548152906001019060200180831161176257829003601f168201915b505050505081565b60008060008060008060008060008061179e613298565b60088c8154811015156117ad57fe5b906000526020600020906009020161012060405190810160405290816000820160009054906101000a900473ffffffffffffffffffffffffffffffffffffffff1673ffffffffffffffffffffffffffffffffffffffff1673ffffffffffffffffffffffffffffffffffffffff16815260200160018201548152602001600282018054806020026020016040519081016040528092919081815260200182805480156118ad57602002820191906000526020600020905b8160009054906101000a900473ffffffffffffffffffffffffffffffffffffffff1673ffffffffffffffffffffffffffffffffffffffff1681526020019060010190808311611863575b505050505081526020016003820180548060200260200160405190810160405280929190818152602001828054801561193b57602002820191906000526020600020905b8160009054906101000a900473ffffffffffffffffffffffffffffffffffffffff1673ffffffffffffffffffffffffffffffffffffffff16815260200190600101908083116118f1575b50505050508152602001600482018054806020026020016040519081016040528092919081815260200182805480156119c957602002820191906000526020600020905b8160009054906101000a900473ffffffffffffffffffffffffffffffffffffffff1673ffffffffffffffffffffffffffffffffffffffff168152602001906001019080831161197f575b5050505050815260200160058201546000191660001916815260200160068201546000191660001916815260200160078201548152602001600882015481525050905080600001519a508060400151519850806060015151975080608001515196508060a0015194508060c0015193508060e001519250806101000151915086888a0101955080602001519950509193959799509193959799565b6000600360149054906101000a900460ff16151515611a8257600080fd5b611a8c8383612868565b905092915050565b6000600260008473ffffffffffffffffffffffffffffffffffffffff1673ffffffffffffffffffffffffffffffffffffffff16815260200190815260200160002060008373ffffffffffffffffffffffffffffffffffffffff1673ffffffffffffffffffffffffffffffffffffffff16815260200190815260200160002054905092915050565b6000600760009054906101000a900473ffffffffffffffffffffffffffffffffffffffff16905090565b600360009054906101000a900473ffffffffffffffffffffffffffffffffffffffff1673ffffffffffffffffffffffffffffffffffffffff163373ffffffffffffffffffffffffffffffffffffffff16141515611ba157600080fd5b600073ffffffffffffffffffffffffffffffffffffffff168173ffffffffffffffffffffffffffffffffffffffff16141515611c195780600360006101000a81548173ffffffffffffffffffffffffffffffffffffffff021916908373ffffffffffffffffffffffffffffffffffffffff1602179055505b50565b600081600260003373ffffffffffffffffffffffffffffffffffffffff1673ffffffffffffffffffffffffffffffffffffffff16815260200190815260200160002060008573ffffffffffffffffffffffffffffffffffffffff1673ffffffffffffffffffffffffffffffffffffffff168152602001908152602001600020819055508273ffffffffffffffffffffffffffffffffffffffff163373ffffffffffffffffffffffffffffffffffffffff167f8c5be1e5ebec7d5bd14f71427d1e84f3dd0314c0f7b2291e5b200ac8c7c3b925846040518082815260200191505060405180910390a36001905092915050565b6000808284019050838110158015611d265750828110155b1515611d2e57fe5b8091505092915050565b600080828410151515611d4757fe5b82840390508091505092915050565b6000811415611de857600883815481101515611d6e57fe5b90600052602060002090600902016002018490806001815401808255809150509060018203906000526020600020016000909192909190916101000a81548173ffffffffffffffffffffffffffffffffffffffff021916908373ffffffffffffffffffffffffffffffffffffffff16021790555050611f0a565b6001811415611e7a57600883815481101515611e0057fe5b90600052602060002090600902016004018490806001815401808255809150509060018203906000526020600020016000909192909190916101000a81548173ffffffffffffffffffffffffffffffffffffffff021916908373ffffffffffffffffffffffffffffffffffffffff16021790555050611f09565b6002811415611f0857600883815481101515611e9257fe5b90600052602060002090600902016003018490806001815401808255809150509060018203906000526020600020016000909192909190916101000a81548173ffffffffffffffffffffffffffffffffffffffff021916908373ffffffffffffffffffffffffffffffffffffffff160217905550505b5b5b81600884815481101515611f1a57fe5b90600052602060002090600902016008016000828254019250508190555081600960008673ffffffffffffffffffffffffffffffffffffffff1673ffffffffffffffffffffffffffffffffffffffff1681526020019081526020016000206000858152602001908152602001600020600083815260200190815260200160002081905550600a60008573ffffffffffffffffffffffffffffffffffffffff1673ffffffffffffffffffffffffffffffffffffffff16815260200190815260200160002083908060018154018082558091505090600182039060005260206000200160009091929091909150555050505050565b60008060008060008060088781548110151561202557fe5b90600052602060002090600902016002018054905011801561206a5750600060088781548110151561205357fe5b906000526020600020906009020160030180549050115b806120c75750600060088781548110151561208157fe5b9060005260206000209060090201600201805490501180156120c6575060006008878154811015156120af57fe5b906000526020600020906009020160040180549050115b5b80612124575060006008878154811015156120de57fe5b9060005260206000209060090201600301805490501180156121235750600060088781548110151561210c57fe5b906000526020600020906009020160040180549050115b5b15612586576019600260088881548110151561213c57fe5b9060005260206000209060090201600801540281151561215857fe5b049350600a600960088881548110151561216e57fe5b9060005260206000209060090201600801540281151561218a57fe5b049250600060088781548110151561219e57fe5b90600052602060002090600902016007015414156122b8576008868154811015156121c557fe5b906000526020600020906009020160020180549050915060008214156121f8576121ee86612a0a565b5060019450612595565b6122028383613085565b90506122b260088781548110151561221657fe5b90600052602060002090600902016002018054806020026020016040519081016040528092919081815260200182805480156122a757602002820191906000526020600020905b8160009054906101000a900473ffffffffffffffffffffffffffffffffffffffff1673ffffffffffffffffffffffffffffffffffffffff168152602001906001019080831161225d575b5050505050826130c8565b5061250c565b60016008878154811015156122c957fe5b90600052602060002090600902016007015414156123e3576008868154811015156122f057fe5b906000526020600020906009020160040180549050915060008214156123235761231986612a0a565b5060019450612595565b61232d8383613085565b90506123dd60088781548110151561234157fe5b90600052602060002090600902016004018054806020026020016040519081016040528092919081815260200182805480156123d257602002820191906000526020600020905b8160009054906101000a900473ffffffffffffffffffffffffffffffffffffffff1673ffffffffffffffffffffffffffffffffffffffff1681526020019060010190808311612388575b5050505050826130c8565b5061250b565b60026008878154811015156123f457fe5b906000526020600020906009020160070154141561250a5760088681548110151561241b57fe5b9060005260206000209060090201600301805490509150600082141561244e5761244486612a0a565b5060019450612595565b6124588383613085565b905061250860088781548110151561246c57fe5b90600052602060002090600902016003018054806020026020016040519081016040528092919081815260200182805480156124fd57602002820191906000526020600020905b8160009054906101000a900473ffffffffffffffffffffffffffffffffffffffff1673ffffffffffffffffffffffffffffffffffffffff16815260200190600101908083116124b3575b5050505050826130c8565b505b5b5b61255660088781548110151561251e57fe5b906000526020600020906009020160000160009054906101000a900473ffffffffffffffffffffffffffffffffffffffff168561310f565b50600160088781548110151561256857fe5b90600052602060002090600902016001018190555060019450612595565b61258f86612a0a565b50600194505b50505050919050565b60006125a8613298565b610120604051908101604052808673ffffffffffffffffffffffffffffffffffffffff1681526020016000815260200160006040519080825280602002602001820160405280156126085781602001602082028038833980820191505090505b508152602001600060405190808252806020026020018201604052801561263e5781602001602082028038833980820191505090505b50815260200160006040519080825280602002602001820160405280156126745781602001602082028038833980820191505090505b5081526020018560001916815260200184600019168152602001600381526020016000815250905060016008829080600181540180825580915050906001820390600052602060002090600902016000909192909190915060008201518160000160006101000a81548173ffffffffffffffffffffffffffffffffffffffff021916908373ffffffffffffffffffffffffffffffffffffffff160217905550602082015181600101556040820151816002019080519060200190612739929190613301565b506060820151816003019080519060200190612756929190613301565b506080820151816004019080519060200190612773929190613301565b5060a0820151816005019060001916905560c0820151816006019060001916905560e0820151816007015561010082015181600801555050039150600b60008673ffffffffffffffffffffffffffffffffffffffff1673ffffffffffffffffffffffffffffffffffffffff168152602001908152602001600020829080600181540180825580915050906001820390600052602060002001600090919290919091505550509392505050565b6000600160008373ffffffffffffffffffffffffffffffffffffffff1673ffffffffffffffffffffffffffffffffffffffff168152602001908152602001600020549050919050565b600060406004810160003690501015151561288257600080fd5b6128cb600160003373ffffffffffffffffffffffffffffffffffffffff1673ffffffffffffffffffffffffffffffffffffffff1681526020019081526020016000205484611d38565b600160003373ffffffffffffffffffffffffffffffffffffffff1673ffffffffffffffffffffffffffffffffffffffff16815260200190815260200160002081905550612957600160008673ffffffffffffffffffffffffffffffffffffffff1673ffffffffffffffffffffffffffffffffffffffff1681526020019081526020016000205484611d0e565b600160008673ffffffffffffffffffffffffffffffffffffffff1673ffffffffffffffffffffffffffffffffffffffff168152602001908152602001600020819055508373ffffffffffffffffffffffffffffffffffffffff163373ffffffffffffffffffffffffffffffffffffffff167fddf252ad1be2c89b69c2b068fc378daa952ba7f163c4a11628f55a4df523b3ef856040518082815260200191505060405180910390a3600191505092915050565b6000806000805b600885815481101515612a2057fe5b906000526020600020906009020160020180549050831015612c2557600060096000600888815481101515612a5157fe5b906000526020600020906009020160020186815481101515612a6f57fe5b9060005260206000200160009054906101000a900473ffffffffffffffffffffffffffffffffffffffff1673ffffffffffffffffffffffffffffffffffffffff1673ffffffffffffffffffffffffffffffffffffffff16815260200190815260200160002060008781526020019081526020016000206000808152602001908152602001600020541115612c1857612c16600886815481101515612b0f57fe5b906000526020600020906009020160020184815481101515612b2d57fe5b9060005260206000200160009054906101000a900473ffffffffffffffffffffffffffffffffffffffff1660096000600889815481101515612b6b57fe5b906000526020600020906009020160020187815481101515612b8957fe5b9060005260206000200160009054906101000a900473ffffffffffffffffffffffffffffffffffffffff1673ffffffffffffffffffffffffffffffffffffffff1673ffffffffffffffffffffffffffffffffffffffff168152602001908152602001600020600088815260200190815260200160002060008081526020019081526020016000205461310f565b505b8280600101935050612a11565b5b600885815481101515612c3557fe5b906000526020600020906009020160030180549050821015612e3c57600060096000600888815481101515612c6657fe5b906000526020600020906009020160030185815481101515612c8457fe5b9060005260206000200160009054906101000a900473ffffffffffffffffffffffffffffffffffffffff1673ffffffffffffffffffffffffffffffffffffffff1673ffffffffffffffffffffffffffffffffffffffff1681526020019081526020016000206000878152602001908152602001600020600060028152602001908152602001600020541115612e2f57612e2d600886815481101515612d2557fe5b906000526020600020906009020160030183815481101515612d4357fe5b9060005260206000200160009054906101000a900473ffffffffffffffffffffffffffffffffffffffff1660096000600889815481101515612d8157fe5b906000526020600020906009020160030186815481101515612d9f57fe5b9060005260206000200160009054906101000a900473ffffffffffffffffffffffffffffffffffffffff1673ffffffffffffffffffffffffffffffffffffffff1673ffffffffffffffffffffffffffffffffffffffff16815260200190815260200160002060008881526020019081526020016000206000600281526020019081526020016000205461310f565b505b8180600101925050612c26565b5b600885815481101515612e4c57fe5b90600052602060002090600902016004018054905081101561305357600060096000600888815481101515612e7d57fe5b906000526020600020906009020160040184815481101515612e9b57fe5b9060005260206000200160009054906101000a900473ffffffffffffffffffffffffffffffffffffffff1673ffffffffffffffffffffffffffffffffffffffff1673ffffffffffffffffffffffffffffffffffffffff168152602001908152602001600020600087815260200190815260200160002060006001815260200190815260200160002054111561304657613044600886815481101515612f3c57fe5b906000526020600020906009020160040182815481101515612f5a57fe5b9060005260206000200160009054906101000a900473ffffffffffffffffffffffffffffffffffffffff1660096000600889815481101515612f9857fe5b906000526020600020906009020160040185815481101515612fb657fe5b9060005260206000200160009054906101000a900473ffffffffffffffffffffffffffffffffffffffff1673ffffffffffffffffffffffffffffffffffffffff1673ffffffffffffffffffffffffffffffffffffffff16815260200190815260200160002060008881526020019081526020016000206000600181526020019081526020016000205461310f565b505b8080600101915050612e3d565b600260088681548110151561306457fe5b90600052602060002090600902016001018190555060019350505050919050565b6000806000808411151561309857600080fd5b83600654600a0a86028115156130aa57fe5b069150818503905083818115156130bd57fe5b049250505092915050565b6000805b8351811015613104576130f684828151811015156130e657fe5b906020019060200201518461310f565b5080806001019150506130cc565b600191505092915050565b600061315a600160003073ffffffffffffffffffffffffffffffffffffffff1673ffffffffffffffffffffffffffffffffffffffff1681526020019081526020016000205483611d38565b600160003073ffffffffffffffffffffffffffffffffffffffff1673ffffffffffffffffffffffffffffffffffffffff168152602001908152602001600020819055506131e6600160008573ffffffffffffffffffffffffffffffffffffffff1673ffffffffffffffffffffffffffffffffffffffff1681526020019081526020016000205483611d0e565b600160008573ffffffffffffffffffffffffffffffffffffffff1673ffffffffffffffffffffffffffffffffffffffff168152602001908152602001600020819055508273ffffffffffffffffffffffffffffffffffffffff163073ffffffffffffffffffffffffffffffffffffffff167f75457583d91e0597e8497ed04c08e88e3fb24d8b586a60de172cef7186b67318846040518082815260200191505060405180910390a36001905092915050565b61012060405190810160405280600073ffffffffffffffffffffffffffffffffffffffff16815260200160008152602001606081526020016060815260200160608152602001600080191681526020016000801916815260200160008152602001600081525090565b82805482825590600052602060002090810192821561337a579160200282015b828111156133795782518260006101000a81548173ffffffffffffffffffffffffffffffffffffffff021916908373ffffffffffffffffffffffffffffffffffffffff16021790555091602001919060010190613321565b5b509050613387919061338b565b5090565b6133cb91905b808211156133c757600081816101000a81549073ffffffffffffffffffffffffffffffffffffffff021916905550600101613391565b5090565b905600a165627a7a72305820e4a7b07b671f9a423abc8b77a13fb7977c9edd6b9f27aa908c927f68b472bfdd0029",
  "source": "pragma solidity ^0.4.18;\n\nimport \"./ERC20.sol\";\n/**\n * The WordCup contract does this and that...\n */\ncontract WordCup is WordCupToken {\n    address public ceoAddress;\n    event PartIn(address indexed from, uint256 _tokenId);\n    event Create(address indexed from, uint256 _tokenId);\n\n    struct Token {\n        address seller;\n        uint status;\n        address[] redParticipant;\n        address[] blueParticipant;\n        address[] equalParticipant;\n        bytes32 red;\n        bytes32 blue;\n        uint  winner;\n        uint256 prizePool;\n    }\n\n    Token[] tokens;\n\n    mapping(address => mapping(uint256 => mapping(uint => uint256))) partTokenAccount;\n    mapping(address => uint256[]) partToken;\n    mapping (address => uint256[]) ownerToken;\n\n    function _create(address _seller, bytes32 _red, bytes32 _blue) internal returns (uint256 tokenId){\n        Token memory token = Token({\n            seller: _seller,\n            red: _red,\n            blue: _blue,\n            status: 0,\n            redParticipant: new address[](0),\n            blueParticipant: new address[](0),\n            equalParticipant: new address[](0),\n            winner: 3,\n            prizePool: 0\n        });\n\n        tokenId = tokens.push(token) - 1;\n        ownerToken[_seller].push(tokenId);\n    }\n\n    constructor() public {\n        ceoAddress = msg.sender;\n    }\n\n    function createGame(bytes32 _red, bytes32 _blue) external returns(uint256 tokenId){\n        tokenId = _create(msg.sender, _red, _blue);\n        emit Create(msg.sender, tokenId);\n    }\n\n   function add_parter(address _parter, uint256 _tokenId, uint256 _price, uint _side) internal {\n        if (_side == 0){\n            tokens[_tokenId].redParticipant.push(_parter);\n        }else if (_side == 1){\n            tokens[_tokenId].equalParticipant.push(_parter);\n        }else if (_side == 2){\n            tokens[_tokenId].blueParticipant.push(_parter);\n        }\n\n        tokens[_tokenId].prizePool += _price;\n        partTokenAccount[_parter][_tokenId][_side] = _price;\n        partToken[_parter].push(_tokenId);\n   }\n\n    function partIn(uint256 _tokenId, uint256 _price, uint _side) external {\n        Token memory token = tokens[_tokenId];\n        require (_side == 0 || _side == 1 || _side == 2);\n        require (token.status == 0);\n        require (_price > uint256(0));\n        require (balanceOf(msg.sender) >= _price);\n        transfer(address(this), _price);\n        add_parter(msg.sender, _tokenId, _price, _side);\n        emit PartIn(msg.sender, _tokenId);\n    }\n\n    function getContractAddress() external view returns (address) {\n        return address(this);\n    }\n\n    function getContractBalance() external view returns (uint256) {\n        return balanceOf(address(this));\n    }\n\n    function getCeoAddress () external view returns (address) {\n        return ceoAddress;\n    }\n    \n    function getGame (uint256 _tokenId) external view returns (\n        address _seller,\n        uint _status,\n        uint256 redLength,\n        uint256 blueLength,\n        uint256 equalLength,\n        uint256 all,\n        bytes32 _red,\n        bytes32 _blue,\n        uint _winner,\n        uint256 _prizePool) {\n        Token memory token = tokens[_tokenId];\n        _seller = token.seller;\n        redLength = token.redParticipant.length;\n        blueLength = token.blueParticipant.length;\n        equalLength = token.equalParticipant.length;\n        _red = token.red;\n        _blue = token.blue;\n        _winner = token.winner;\n        _prizePool = token.prizePool;\n        all = redLength + blueLength + equalLength;\n        _status = token.status;\n    }\n    \n    function getPartIn () external view returns (uint256[]) {\n        uint256[] memory result = new uint256[](partToken[msg.sender].length);\n        for (uint256 i; i < partToken[msg.sender].length; i++) {\n            result[i] = partToken[msg.sender][i];\n        }\n        return result;\n    }\n\n    function getCreate () external view returns (uint256[]) {\n        uint256[] memory result = new uint256[](ownerToken[msg.sender].length);\n        for (uint256 i; i < ownerToken[msg.sender].length; i++) {\n            result[i] = ownerToken[msg.sender][i];\n        }\n        return result;\n    }\n    \n\n    function _return (uint256 _tokenId) internal returns(bool res)  {\n        for (uint256 i; i < tokens[_tokenId].redParticipant.length; i++){\n            if (partTokenAccount[tokens[_tokenId].redParticipant[i]][_tokenId][0] > 0){\n                _return(tokens[_tokenId].redParticipant[i], partTokenAccount[tokens[_tokenId].redParticipant[i]][_tokenId][0]);\n            }\n            \n        }\n        for (uint256 j; j < tokens[_tokenId].blueParticipant.length; j++){\n            if (partTokenAccount[tokens[_tokenId].blueParticipant[j]][_tokenId][2] > 0){\n                _return(tokens[_tokenId].blueParticipant[j], partTokenAccount[tokens[_tokenId].blueParticipant[j]][_tokenId][2]);\n            }\n            \n        }\n        for (uint256 h; h < tokens[_tokenId].equalParticipant.length; h++){\n            if (partTokenAccount[tokens[_tokenId].equalParticipant[h]][_tokenId][1] > 0){\n                _return(tokens[_tokenId].equalParticipant[h], partTokenAccount[tokens[_tokenId].equalParticipant[h]][_tokenId][1]);\n            }\n            \n        }\n        tokens[_tokenId].status = 2;\n        return true;\n    }\n\n    function _profit (address[] profitAddress, uint256 profitPrice) internal returns(bool res)  {\n        for (uint256 i; i < profitAddress.length; i++){\n            _return(profitAddress[i], profitPrice);\n        }\n        return true;\n    }\n    \n    \n    function _getPrice(uint256 numerator, uint256 denominator) internal view returns(uint256 _price)  {     \n        require (denominator > 0);     \n        uint256 remainder =  (numerator * 10 ** decimals) % denominator;\n        uint256 divisor = numerator - remainder;\n        _price = divisor / denominator;\n\n    }\n    \n\n    function _open(uint256 _tokenId) internal  returns(bool res)  {\n        if ((tokens[_tokenId].redParticipant.length > 0 && tokens[_tokenId].blueParticipant.length > 0) ||\n         (tokens[_tokenId].redParticipant.length > 0 && tokens[_tokenId].equalParticipant.length > 0) ||\n          (tokens[_tokenId].blueParticipant.length > 0 && tokens[_tokenId].equalParticipant.length > 0)){\n                uint256 sellerProfit = tokens[_tokenId].prizePool * 2 / 25;\n                uint256 participantProfit = tokens[_tokenId].prizePool * 9 / 10;\n                uint256 _denominator;\n                uint256 _price;\n\n                if (tokens[_tokenId].winner == 0){\n                    _denominator = tokens[_tokenId].redParticipant.length;\n                    if (_denominator == 0){\n                        _return(_tokenId);\n                        return true;\n                    }\n                   _price = _getPrice(participantProfit, _denominator);\n                    _profit(tokens[_tokenId].redParticipant, _price);\n                }else if(tokens[_tokenId].winner == 1){\n                    _denominator = tokens[_tokenId].equalParticipant.length;\n                    if (_denominator == 0){\n                        _return(_tokenId);\n                        return true;\n                    }\n                    _price = _getPrice(participantProfit, _denominator);\n                    _profit(tokens[_tokenId].equalParticipant, _price);\n                }else if(tokens[_tokenId].winner == 2){\n                    _denominator = tokens[_tokenId].blueParticipant.length;\n                    if (_denominator == 0){\n                        _return(_tokenId);\n                        return true;\n                    }\n                    _price = _getPrice(participantProfit, _denominator);\n                    _profit(tokens[_tokenId].blueParticipant, _price);\n                }\n                _return(tokens[_tokenId].seller, sellerProfit);\n                tokens[_tokenId].status = 1;\n                return true;\n\n            }else{\n                _return(_tokenId);\n            }\n        return true;\n    }\n\n    function openGame (uint256 _tokenId, uint _winner) external returns(bool) {\n\n        require (tokens[_tokenId].status == 0);\n        require (msg.sender == tokens[_tokenId].seller, \"sender address error\");\n        require (_winner == 0 || _winner == 1 || _winner == 2);\n        \n        tokens[_tokenId].winner = _winner;\n        return _open(_tokenId);\n    }\n    \n    function () external payable {}\n}\n",
  "sourcePath": "/home/zero/contracts/WordCup.sol",
  "compiler": {
    "name": "solc",
    "version": "0.4.24+commit.e67f0147.Emscripten.clang"
  },
  "schemaVersion": "2.0.0",
  "updatedAt": "2018-06-20T06:31:25.394Z"
}